{
  "_format": "hh-sol-artifact-1",
  "contractName": "FlashArtCelo",
  "sourceName": "contracts/FlashArt.sol",
  "abi": [
    {
      "inputs": [],
      "stateMutability": "nonpayable",
      "type": "constructor"
    },
    {
      "anonymous": false,
      "inputs": [
        {
          "indexed": true,
          "internalType": "address",
          "name": "user",
          "type": "address"
        },
        {
          "indexed": false,
          "internalType": "uint256",
          "name": "amount",
          "type": "uint256"
        },
        {
          "indexed": false,
          "internalType": "string",
          "name": "prompt",
          "type": "string"
        }
      ],
      "name": "ImageGenerated",
      "type": "event"
    },
    {
      "inputs": [],
      "name": "owner",
      "outputs": [
        {
          "internalType": "address",
          "name": "",
          "type": "address"
        }
      ],
      "stateMutability": "view",
      "type": "function"
    },
    {
      "inputs": [
        {
          "internalType": "string",
          "name": "prompt",
          "type": "string"
        }
      ],
      "name": "payForImage",
      "outputs": [],
      "stateMutability": "payable",
      "type": "function"
    },
    {
      "inputs": [],
      "name": "pricePerImage",
      "outputs": [
        {
          "internalType": "uint256",
          "name": "",
          "type": "uint256"
        }
      ],
      "stateMutability": "view",
      "type": "function"
    },
    {
      "inputs": [
        {
          "internalType": "uint256",
          "name": "_newPrice",
          "type": "uint256"
        }
      ],
      "name": "updatePrice",
      "outputs": [],
      "stateMutability": "nonpayable",
      "type": "function"
    },
    {
      "stateMutability": "payable",
      "type": "receive"
    }
  ],
  "bytecode": "0x608060405266038d7ea4c6800060015534801561001b57600080fd5b50336000806101000a81548173ffffffffffffffffffffffffffffffffffffffff021916908373ffffffffffffffffffffffffffffffffffffffff1602179055506105f18061006b6000396000f3fe6080604052600436106100435760003560e01c80631a2217401461004f5780638d6cc56d1461006b5780638da5cb5b14610094578063f721a2dc146100bf5761004a565b3661004a57005b600080fd5b6100696004803603810190610064919061031d565b6100ea565b005b34801561007757600080fd5b50610092600480360381019061008d91906103a0565b6101ec565b005b3480156100a057600080fd5b506100a9610284565b6040516100b6919061040e565b60405180910390f35b3480156100cb57600080fd5b506100d46102a8565b6040516100e19190610438565b60405180910390f35b60015434101561012f576040517f08c379a0000000000000000000000000000000000000000000000000000000008152600401610126906104b0565b60405180910390fd5b60008054906101000a900473ffffffffffffffffffffffffffffffffffffffff1673ffffffffffffffffffffffffffffffffffffffff166108fc349081150290604051600060405180830381858888f19350505050158015610195573d6000803e3d6000fd5b503373ffffffffffffffffffffffffffffffffffffffff167ff678ffdae613f685f4093339c60e9a7c25eb163a15b96309cd20a8e3de8d61c03484846040516101e09392919061051d565b60405180910390a25050565b60008054906101000a900473ffffffffffffffffffffffffffffffffffffffff1673ffffffffffffffffffffffffffffffffffffffff163373ffffffffffffffffffffffffffffffffffffffff161461027a576040517f08c379a00000000000000000000000000000000000000000000000000000000081526004016102719061059b565b60405180910390fd5b8060018190555050565b60008054906101000a900473ffffffffffffffffffffffffffffffffffffffff1681565b60015481565b600080fd5b600080fd5b600080fd5b600080fd5b600080fd5b60008083601f8401126102dd576102dc6102b8565b5b8235905067ffffffffffffffff8111156102fa576102f96102bd565b5b602083019150836001820283011115610316576103156102c2565b5b9250929050565b60008060208385031215610334576103336102ae565b5b600083013567ffffffffffffffff811115610352576103516102b3565b5b61035e858286016102c7565b92509250509250929050565b6000819050919050565b61037d8161036a565b811461038857600080fd5b50565b60008135905061039a81610374565b92915050565b6000602082840312156103b6576103b56102ae565b5b60006103c48482850161038b565b91505092915050565b600073ffffffffffffffffffffffffffffffffffffffff82169050919050565b60006103f8826103cd565b9050919050565b610408816103ed565b82525050565b600060208201905061042360008301846103ff565b92915050565b6104328161036a565b82525050565b600060208201905061044d6000830184610429565b92915050565b600082825260208201905092915050565b7f496e73756666696369656e74207061796d656e74000000000000000000000000600082015250565b600061049a601483610453565b91506104a582610464565b602082019050919050565b600060208201905081810360008301526104c98161048d565b9050919050565b82818337600083830152505050565b6000601f19601f8301169050919050565b60006104fc8385610453565b93506105098385846104d0565b610512836104df565b840190509392505050565b60006040820190506105326000830186610429565b81810360208301526105458184866104f0565b9050949350505050565b7f4e6f74206f776e65720000000000000000000000000000000000000000000000600082015250565b6000610585600983610453565b91506105908261054f565b602082019050919050565b600060208201905081810360008301526105b481610578565b905091905056fea2646970667358221220d315d16027bcdd1d46514a7ffbb94a3f6da5b81e1eb860ad0da11617e5c136e864736f6c63430008130033",
  "linkReferences": {},
  "deployedLinkReferences": {}
}