{
  "_format": "hh-sol-artifact-1",
  "contractName": "FlashArt",
  "sourceName": "contracts/FlashArt.sol",
  "abi": [
    {
      "inputs": [
        {
          "internalType": "address",
          "name": "_cUSD",
          "type": "address"
        }
      ],
      "stateMutability": "nonpayable",
      "type": "constructor"
    },
    {
      "anonymous": false,
      "inputs": [
        {
          "indexed": true,
          "internalType": "address",
          "name": "user",
          "type": "address"
        },
        {
          "indexed": false,
          "internalType": "uint256",
          "name": "amount",
          "type": "uint256"
        },
        {
          "indexed": false,
          "internalType": "string",
          "name": "prompt",
          "type": "string"
        }
      ],
      "name": "ImageGenerated",
      "type": "event"
    },
    {
      "inputs": [],
      "name": "cUSD",
      "outputs": [
        {
          "internalType": "contract IERC20",
          "name": "",
          "type": "address"
        }
      ],
      "stateMutability": "view",
      "type": "function"
    },
    {
      "inputs": [],
      "name": "owner",
      "outputs": [
        {
          "internalType": "address",
          "name": "",
          "type": "address"
        }
      ],
      "stateMutability": "view",
      "type": "function"
    },
    {
      "inputs": [
        {
          "internalType": "string",
          "name": "prompt",
          "type": "string"
        }
      ],
      "name": "payForImage",
      "outputs": [],
      "stateMutability": "nonpayable",
      "type": "function"
    },
    {
      "inputs": [],
      "name": "pricePerImage",
      "outputs": [
        {
          "internalType": "uint256",
          "name": "",
          "type": "uint256"
        }
      ],
      "stateMutability": "view",
      "type": "function"
    },
    {
      "inputs": [
        {
          "internalType": "uint256",
          "name": "_newPrice",
          "type": "uint256"
        }
      ],
      "name": "updatePrice",
      "outputs": [],
      "stateMutability": "nonpayable",
      "type": "function"
    }
  ],
  "bytecode": "0x608060405266b1a2bc2ec5000060025534801561001b57600080fd5b506040516108ed3803806108ed833981810160405281019061003d9190610127565b336000806101000a81548173ffffffffffffffffffffffffffffffffffffffff021916908373ffffffffffffffffffffffffffffffffffffffff16021790555080600160006101000a81548173ffffffffffffffffffffffffffffffffffffffff021916908373ffffffffffffffffffffffffffffffffffffffff16021790555050610154565b600080fd5b600073ffffffffffffffffffffffffffffffffffffffff82169050919050565b60006100f4826100c9565b9050919050565b610104816100e9565b811461010f57600080fd5b50565b600081519050610121816100fb565b92915050565b60006020828403121561013d5761013c6100c4565b5b600061014b84828501610112565b91505092915050565b61078a806101636000396000f3fe608060405234801561001057600080fd5b50600436106100575760003560e01c80631a2217401461005c5780631fccf672146100785780638d6cc56d146100965780638da5cb5b146100b2578063f721a2dc146100d0575b600080fd5b610076600480360381019061007191906103a0565b6100ee565b005b610080610249565b60405161008d919061046c565b60405180910390f35b6100b060048036038101906100ab91906104bd565b61026f565b005b6100ba610307565b6040516100c7919061050b565b60405180910390f35b6100d861032b565b6040516100e59190610535565b60405180910390f35b600160009054906101000a900473ffffffffffffffffffffffffffffffffffffffff1673ffffffffffffffffffffffffffffffffffffffff166323b872dd3360008054906101000a900473ffffffffffffffffffffffffffffffffffffffff166002546040518463ffffffff1660e01b815260040161016f93929190610550565b6020604051808303816000875af115801561018e573d6000803e3d6000fd5b505050506040513d601f19601f820116820180604052508101906101b291906105bf565b6101f1576040517f08c379a00000000000000000000000000000000000000000000000000000000081526004016101e890610649565b60405180910390fd5b3373ffffffffffffffffffffffffffffffffffffffff167ff678ffdae613f685f4093339c60e9a7c25eb163a15b96309cd20a8e3de8d61c0600254848460405161023d939291906106b6565b60405180910390a25050565b600160009054906101000a900473ffffffffffffffffffffffffffffffffffffffff1681565b60008054906101000a900473ffffffffffffffffffffffffffffffffffffffff1673ffffffffffffffffffffffffffffffffffffffff163373ffffffffffffffffffffffffffffffffffffffff16146102fd576040517f08c379a00000000000000000000000000000000000000000000000000000000081526004016102f490610734565b60405180910390fd5b8060028190555050565b60008054906101000a900473ffffffffffffffffffffffffffffffffffffffff1681565b60025481565b600080fd5b600080fd5b600080fd5b600080fd5b600080fd5b60008083601f8401126103605761035f61033b565b5b8235905067ffffffffffffffff81111561037d5761037c610340565b5b60208301915083600182028301111561039957610398610345565b5b9250929050565b600080602083850312156103b7576103b6610331565b5b600083013567ffffffffffffffff8111156103d5576103d4610336565b5b6103e18582860161034a565b92509250509250929050565b600073ffffffffffffffffffffffffffffffffffffffff82169050919050565b6000819050919050565b600061043261042d610428846103ed565b61040d565b6103ed565b9050919050565b600061044482610417565b9050919050565b600061045682610439565b9050919050565b6104668161044b565b82525050565b6000602082019050610481600083018461045d565b92915050565b6000819050919050565b61049a81610487565b81146104a557600080fd5b50565b6000813590506104b781610491565b92915050565b6000602082840312156104d3576104d2610331565b5b60006104e1848285016104a8565b91505092915050565b60006104f5826103ed565b9050919050565b610505816104ea565b82525050565b600060208201905061052060008301846104fc565b92915050565b61052f81610487565b82525050565b600060208201905061054a6000830184610526565b92915050565b600060608201905061056560008301866104fc565b61057260208301856104fc565b61057f6040830184610526565b949350505050565b60008115159050919050565b61059c81610587565b81146105a757600080fd5b50565b6000815190506105b981610593565b92915050565b6000602082840312156105d5576105d4610331565b5b60006105e3848285016105aa565b91505092915050565b600082825260208201905092915050565b7f5061796d656e74206661696c6564000000000000000000000000000000000000600082015250565b6000610633600e836105ec565b915061063e826105fd565b602082019050919050565b6000602082019050818103600083015261066281610626565b9050919050565b82818337600083830152505050565b6000601f19601f8301169050919050565b600061069583856105ec565b93506106a2838584610669565b6106ab83610678565b840190509392505050565b60006040820190506106cb6000830186610526565b81810360208301526106de818486610689565b9050949350505050565b7f4e6f74206f776e65720000000000000000000000000000000000000000000000600082015250565b600061071e6009836105ec565b9150610729826106e8565b602082019050919050565b6000602082019050818103600083015261074d81610711565b905091905056fea264697066735822122027187e74bb65e2a6bc10f6b2d6f9e4df0804cfa48da6e13a977d6ea010390a0164736f6c63430008130033",
  "linkReferences": {},
  "deployedLinkReferences": {}
}